{
  "abi": [
    {
      "anonymous": false,
      "inputs": [
        {
          "indexed": true,
          "internalType": "address",
          "name": "owner",
          "type": "address"
        },
        {
          "indexed": true,
          "internalType": "address",
          "name": "spender",
          "type": "address"
        },
        {
          "indexed": false,
          "internalType": "uint256",
          "name": "value",
          "type": "uint256"
        }
      ],
      "name": "Approval",
      "type": "event"
    },
    {
      "anonymous": false,
      "inputs": [
        {
          "indexed": false,
          "internalType": "uint256",
          "name": "_numOfWeeks",
          "type": "uint256"
        },
        {
          "indexed": false,
          "internalType": "uint256",
          "name": "_averageAPR",
          "type": "uint256"
        }
      ],
      "name": "AverageAPR",
      "type": "event"
    },
    {
      "anonymous": false,
      "inputs": [
        {
          "indexed": true,
          "internalType": "uint256",
          "name": "_amount",
          "type": "uint256"
        },
        {
          "indexed": false,
          "internalType": "bool",
          "name": "_sent",
          "type": "bool"
        }
      ],
      "name": "Claimed",
      "type": "event"
    },
    {
      "anonymous": false,
      "inputs": [
        {
          "indexed": true,
          "internalType": "address",
          "name": "from",
          "type": "address"
        },
        {
          "indexed": true,
          "internalType": "address",
          "name": "to",
          "type": "address"
        },
        {
          "indexed": false,
          "internalType": "uint256",
          "name": "value",
          "type": "uint256"
        }
      ],
      "name": "Transfer",
      "type": "event"
    },
    {
      "inputs": [],
      "name": "DECIMALS_PRESERVATION",
      "outputs": [
        {
          "internalType": "uint256",
          "name": "",
          "type": "uint256"
        }
      ],
      "stateMutability": "view",
      "type": "function"
    },
    {
      "inputs": [
        {
          "internalType": "address",
          "name": "owner",
          "type": "address"
        },
        {
          "internalType": "address",
          "name": "spender",
          "type": "address"
        }
      ],
      "name": "allowance",
      "outputs": [
        {
          "internalType": "uint256",
          "name": "",
          "type": "uint256"
        }
      ],
      "stateMutability": "view",
      "type": "function"
    },
    {
      "inputs": [
        {
          "internalType": "address",
          "name": "spender",
          "type": "address"
        },
        {
          "internalType": "uint256",
          "name": "amount",
          "type": "uint256"
        }
      ],
      "name": "approve",
      "outputs": [
        {
          "internalType": "bool",
          "name": "",
          "type": "bool"
        }
      ],
      "stateMutability": "nonpayable",
      "type": "function"
    },
    {
      "inputs": [
        {
          "internalType": "address",
          "name": "account",
          "type": "address"
        }
      ],
      "name": "balanceOf",
      "outputs": [
        {
          "internalType": "uint256",
          "name": "",
          "type": "uint256"
        }
      ],
      "stateMutability": "view",
      "type": "function"
    },
    {
      "inputs": [],
      "name": "claim",
      "outputs": [
        {
          "internalType": "bool",
          "name": "claimed",
          "type": "bool"
        }
      ],
      "stateMutability": "nonpayable",
      "type": "function"
    },
    {
      "inputs": [],
      "name": "decimals",
      "outputs": [
        {
          "internalType": "uint8",
          "name": "",
          "type": "uint8"
        }
      ],
      "stateMutability": "view",
      "type": "function"
    },
    {
      "inputs": [
        {
          "internalType": "address",
          "name": "spender",
          "type": "address"
        },
        {
          "internalType": "uint256",
          "name": "subtractedValue",
          "type": "uint256"
        }
      ],
      "name": "decreaseAllowance",
      "outputs": [
        {
          "internalType": "bool",
          "name": "",
          "type": "bool"
        }
      ],
      "stateMutability": "nonpayable",
      "type": "function"
    },
    {
      "inputs": [
        {
          "internalType": "address",
          "name": "_user",
          "type": "address"
        }
      ],
      "name": "displayReward",
      "outputs": [
        {
          "internalType": "uint256",
          "name": "reward",
          "type": "uint256"
        }
      ],
      "stateMutability": "view",
      "type": "function"
    },
    {
      "inputs": [
        {
          "internalType": "address",
          "name": "_user",
          "type": "address"
        }
      ],
      "name": "displayStakeTime",
      "outputs": [
        {
          "internalType": "uint256",
          "name": "st",
          "type": "uint256"
        }
      ],
      "stateMutability": "view",
      "type": "function"
    },
    {
      "inputs": [
        {
          "internalType": "address",
          "name": "spender",
          "type": "address"
        },
        {
          "internalType": "uint256",
          "name": "addedValue",
          "type": "uint256"
        }
      ],
      "name": "increaseAllowance",
      "outputs": [
        {
          "internalType": "bool",
          "name": "",
          "type": "bool"
        }
      ],
      "stateMutability": "nonpayable",
      "type": "function"
    },
    {
      "inputs": [],
      "name": "name",
      "outputs": [
        {
          "internalType": "string",
          "name": "",
          "type": "string"
        }
      ],
      "stateMutability": "view",
      "type": "function"
    },
    {
      "inputs": [],
      "name": "openShangai",
      "outputs": [],
      "stateMutability": "nonpayable",
      "type": "function"
    },
    {
      "inputs": [
        {
          "internalType": "uint256",
          "name": "_weekReward",
          "type": "uint256"
        }
      ],
      "name": "pushWeekReward",
      "outputs": [],
      "stateMutability": "nonpayable",
      "type": "function"
    },
    {
      "inputs": [],
      "name": "stake",
      "outputs": [],
      "stateMutability": "payable",
      "type": "function"
    },
    {
      "inputs": [],
      "name": "symbol",
      "outputs": [
        {
          "internalType": "string",
          "name": "",
          "type": "string"
        }
      ],
      "stateMutability": "view",
      "type": "function"
    },
    {
      "inputs": [],
      "name": "totalSupply",
      "outputs": [
        {
          "internalType": "uint256",
          "name": "",
          "type": "uint256"
        }
      ],
      "stateMutability": "view",
      "type": "function"
    },
    {
      "inputs": [
        {
          "internalType": "address",
          "name": "to",
          "type": "address"
        },
        {
          "internalType": "uint256",
          "name": "amount",
          "type": "uint256"
        }
      ],
      "name": "transfer",
      "outputs": [
        {
          "internalType": "bool",
          "name": "",
          "type": "bool"
        }
      ],
      "stateMutability": "nonpayable",
      "type": "function"
    },
    {
      "inputs": [
        {
          "internalType": "address",
          "name": "from",
          "type": "address"
        },
        {
          "internalType": "address",
          "name": "to",
          "type": "address"
        },
        {
          "internalType": "uint256",
          "name": "amount",
          "type": "uint256"
        }
      ],
      "name": "transferFrom",
      "outputs": [
        {
          "internalType": "bool",
          "name": "",
          "type": "bool"
        }
      ],
      "stateMutability": "nonpayable",
      "type": "function"
    },
    {
      "inputs": [
        {
          "internalType": "uint256",
          "name": "_amount",
          "type": "uint256"
        }
      ],
      "name": "unstake",
      "outputs": [],
      "stateMutability": "nonpayable",
      "type": "function"
    },
    {
      "inputs": [
        {
          "internalType": "address",
          "name": "",
          "type": "address"
        }
      ],
      "name": "users",
      "outputs": [
        {
          "internalType": "uint256",
          "name": "totalUserStake",
          "type": "uint256"
        },
        {
          "internalType": "uint256",
          "name": "initTime",
          "type": "uint256"
        }
      ],
      "stateMutability": "view",
      "type": "function"
    },
    {
      "inputs": [
        {
          "internalType": "uint256",
          "name": "",
          "type": "uint256"
        }
      ],
      "name": "weeklyAPR",
      "outputs": [
        {
          "internalType": "uint256",
          "name": "",
          "type": "uint256"
        }
      ],
      "stateMutability": "view",
      "type": "function"
    },
    {
      "stateMutability": "payable",
      "type": "receive"
    }
  ],
  "bytecode": {
    "object": "0x60806040523480156200001157600080fd5b50604051806040016040528060078152602001660e2ead2c88aa8960cb1b815250604051806040016040528060048152602001630e28aa8960e31b81525081600390816200006091906200011d565b5060046200006f82826200011d565b505050620001e9565b634e487b7160e01b600052604160045260246000fd5b600181811c90821680620000a357607f821691505b602082108103620000c457634e487b7160e01b600052602260045260246000fd5b50919050565b601f8211156200011857600081815260208120601f850160051c81016020861015620000f35750805b601f850160051c820191505b818110156200011457828155600101620000ff565b5050505b505050565b81516001600160401b0381111562000139576200013962000078565b62000151816200014a84546200008e565b84620000ca565b602080601f831160018114620001895760008415620001705750858301515b600019600386901b1c1916600185901b17855562000114565b600085815260208120601f198616915b82811015620001ba5788860151825594840194600190910190840162000199565b5085821015620001d95787850151600019600388901b60f8161c191681555b5050505050600190811b01905550565b6112f880620001f96000396000f3fe60806040526004361061012e5760003560e01c8063877a10bb116100ab578063a87430ba1161006f578063a87430ba14610319578063a9059cbb14610362578063b383993614610382578063c52a33b7146103d2578063dd62ed3e146103e9578063e89768d31461040957600080fd5b8063877a10bb1461028557806395d89b41146102a45780639d9ed8c3146102b9578063a38abb82146102d9578063a457c2d7146102f957600080fd5b8063313ce567116100f2578063313ce567146101f657806339509351146102125780633a4b66f1146102325780634e71d92d1461023a57806370a082311461024f57600080fd5b806306fdde031461013a578063095ea7b31461016557806318160ddd1461019557806323b872dd146101b45780632e17de78146101d457600080fd5b3661013557005b600080fd5b34801561014657600080fd5b5061014f610429565b60405161015c91906110a6565b60405180910390f35b34801561017157600080fd5b50610185610180366004611110565b6104bb565b604051901515815260200161015c565b3480156101a157600080fd5b506002545b60405190815260200161015c565b3480156101c057600080fd5b506101856101cf36600461113a565b6104d5565b3480156101e057600080fd5b506101f46101ef366004611176565b6104f9565b005b34801561020257600080fd5b506040516012815260200161015c565b34801561021e57600080fd5b5061018561022d366004611110565b61069a565b6101f46106bc565b34801561024657600080fd5b50610185610726565b34801561025b57600080fd5b506101a661026a36600461118f565b6001600160a01b031660009081526020819052604090205490565b34801561029157600080fd5b506101f46007805460ff19166001179055565b3480156102b057600080fd5b5061014f610736565b3480156102c557600080fd5b506101a66102d4366004611176565b610745565b3480156102e557600080fd5b506101a66102f436600461118f565b610766565b34801561030557600080fd5b50610185610314366004611110565b6107a1565b34801561032557600080fd5b5061034d61033436600461118f565b6009602052600090815260409020805460019091015482565b6040805192835260208301919091520161015c565b34801561036e57600080fd5b5061018561037d366004611110565b61081c565b34801561038e57600080fd5b506101f461039d366004611176565b600880546001810182556000919091527ff3f7a9fe364faab93b216da50a3214154f22a0a2b415b23a84c8169e8b636ee30155565b3480156103de57600080fd5b506101a6620f424081565b3480156103f557600080fd5b506101a66104043660046111b1565b61082a565b34801561041557600080fd5b506101a661042436600461118f565b610855565b606060038054610438906111e4565b80601f0160208091040260200160405190810160405280929190818152602001828054610464906111e4565b80156104b15780601f10610486576101008083540402835291602001916104b1565b820191906000526020600020905b81548152906001019060200180831161049457829003601f168201915b5050505050905090565b6000336104c981858561087b565b60019150505b92915050565b6000336104e385828561099f565b6104ee858585610a19565b506001949350505050565b60075460ff166105475760405162461bcd60e51b81526020600482015260146024820152731cda185b99d85a481b9bdd081c995b19585cd95960621b60448201526064015b60405180910390fd5b33600090815260096020526040812054610562908390611234565b101561059c5760405162461bcd60e51b8152602060048201526009602482015268756e646572666c6f7760b81b604482015260640161053e565b33600090815260096020526040812080548392906105bb908490611234565b909155506105cb90503382610bbd565b60006105d5610726565b9050806106125760405162461bcd60e51b815260206004820152600b60248201526a1b9bdd0818db185a5b595960aa1b604482015260640161053e565b604051600090339084908381818185875af1925050503d8060008114610654576040519150601f19603f3d011682016040523d82523d6000602084013e610659565b606091505b50509050806106955760405162461bcd60e51b81526020600482015260086024820152671b9bdd081cd95b9d60c21b604482015260640161053e565b505050565b6000336104c98185856106ad838361082a565b6106b79190611247565b61087b565b6106c63334610cef565b33600090815260096020526040812080543492906106e5908490611247565b9250508190555034600560008282546106fe9190611247565b90915550503360009081526009602052604081205490036107245761072233610dae565b505b565b600061073133610dae565b905090565b606060048054610438906111e4565b6008818154811061075557600080fd5b600091825260209091200154905081565b6001600160a01b038116600090815260096020908152604080832081518083019092528054825260010154918101919091526104cf90610ed9565b600033816107af828661082a565b90508381101561080f5760405162461bcd60e51b815260206004820152602560248201527f45524332303a2064656372656173656420616c6c6f77616e63652062656c6f77604482015264207a65726f60d81b606482015260840161053e565b6104ee828686840361087b565b6000336104c9818585610a19565b6001600160a01b03918216600090815260016020908152604080832093909416825291909152205490565b6001600160a01b0381166000908152600960205260408120600101546104cf9042611234565b6001600160a01b0383166108dd5760405162461bcd60e51b8152602060048201526024808201527f45524332303a20617070726f76652066726f6d20746865207a65726f206164646044820152637265737360e01b606482015260840161053e565b6001600160a01b03821661093e5760405162461bcd60e51b815260206004820152602260248201527f45524332303a20617070726f766520746f20746865207a65726f206164647265604482015261737360f01b606482015260840161053e565b6001600160a01b0383811660008181526001602090815260408083209487168084529482529182902085905590518481527f8c5be1e5ebec7d5bd14f71427d1e84f3dd0314c0f7b2291e5b200ac8c7c3b925910160405180910390a3505050565b60006109ab848461082a565b90506000198114610a135781811015610a065760405162461bcd60e51b815260206004820152601d60248201527f45524332303a20696e73756666696369656e7420616c6c6f77616e6365000000604482015260640161053e565b610a13848484840361087b565b50505050565b6001600160a01b038316610a7d5760405162461bcd60e51b815260206004820152602560248201527f45524332303a207472616e736665722066726f6d20746865207a65726f206164604482015264647265737360d81b606482015260840161053e565b6001600160a01b038216610adf5760405162461bcd60e51b815260206004820152602360248201527f45524332303a207472616e7366657220746f20746865207a65726f206164647260448201526265737360e81b606482015260840161053e565b6001600160a01b03831660009081526020819052604090205481811015610b575760405162461bcd60e51b815260206004820152602660248201527f45524332303a207472616e7366657220616d6f756e7420657863656564732062604482015265616c616e636560d01b606482015260840161053e565b6001600160a01b03848116600081815260208181526040808320878703905593871680835291849020805487019055925185815290927fddf252ad1be2c89b69c2b068fc378daa952ba7f163c4a11628f55a4df523b3ef910160405180910390a3610a13565b6001600160a01b038216610c1d5760405162461bcd60e51b815260206004820152602160248201527f45524332303a206275726e2066726f6d20746865207a65726f206164647265736044820152607360f81b606482015260840161053e565b6001600160a01b03821660009081526020819052604090205481811015610c915760405162461bcd60e51b815260206004820152602260248201527f45524332303a206275726e20616d6f756e7420657863656564732062616c616e604482015261636560f01b606482015260840161053e565b6001600160a01b0383166000818152602081815260408083208686039055600280548790039055518581529192917fddf252ad1be2c89b69c2b068fc378daa952ba7f163c4a11628f55a4df523b3ef910160405180910390a3505050565b6001600160a01b038216610d455760405162461bcd60e51b815260206004820152601f60248201527f45524332303a206d696e7420746f20746865207a65726f206164647265737300604482015260640161053e565b8060026000828254610d579190611247565b90915550506001600160a01b038216600081815260208181526040808320805486019055518481527fddf252ad1be2c89b69c2b068fc378daa952ba7f163c4a11628f55a4df523b3ef910160405180910390a35050565b6001600160a01b038116600090815260096020908152604080832081518083019092528054825260010154918101919091528190610deb90610ed9565b6001600160a01b038416600081815260096020526040808220426001820155829055519293509183908381818185875af1925050503d8060008114610e4c576040519150601f19603f3d011682016040523d82523d6000602084013e610e51565b606091505b5050905080610e935760405162461bcd60e51b815260206004820152600e60248201526d195d1a195c881b9bdd081cd95b9d60921b604482015260640161053e565b817f09df812ba7188e56719168c531ec106e5e6b42706ff8a7f54c8033b4c93acef782604051610ec7911515815260200190565b60405180910390a25060019392505050565b600080826020015142610eec9190611234565b11610f1f5760405162461bcd60e51b815260206004820152600360248201526237bb3360e91b604482015260640161053e565b6000826020015142610f319190611234565b90506000610f3e82610f80565b9050816301dfe200620f4240838760000151610f5a919061125a565b610f649190611271565b610f6e9190611271565b610f78919061125a565b949350505050565b600854600090610fc35760405162461bcd60e51b815260206004820152600e60248201526d195b5c1d1e48105414881b1a5cdd60921b604482015260640161053e565b6000610fd262093a8084611271565b60085490915081146110185760405162461bcd60e51b815260206004820152600f60248201526e0d8cadccee8d040dad2e6dac2e8c6d608b1b604482015260640161053e565b600854600090816110298483611234565b905060005b826110398383611247565b101561108357600861104b8383611247565b8154811061105b5761105b611293565b9060005260206000200154846110719190611247565b935061107c816112a9565b905061102e565b5083611092620f42408561125a565b61109c9190611271565b9695505050505050565b600060208083528351808285015260005b818110156110d3578581018301518582016040015282016110b7565b506000604082860101526040601f19601f8301168501019250505092915050565b80356001600160a01b038116811461110b57600080fd5b919050565b6000806040838503121561112357600080fd5b61112c836110f4565b946020939093013593505050565b60008060006060848603121561114f57600080fd5b611158846110f4565b9250611166602085016110f4565b9150604084013590509250925092565b60006020828403121561118857600080fd5b5035919050565b6000602082840312156111a157600080fd5b6111aa826110f4565b9392505050565b600080604083850312156111c457600080fd5b6111cd836110f4565b91506111db602084016110f4565b90509250929050565b600181811c908216806111f857607f821691505b60208210810361121857634e487b7160e01b600052602260045260246000fd5b50919050565b634e487b7160e01b600052601160045260246000fd5b818103818111156104cf576104cf61121e565b808201808211156104cf576104cf61121e565b80820281158282048414176104cf576104cf61121e565b60008261128e57634e487b7160e01b600052601260045260246000fd5b500490565b634e487b7160e01b600052603260045260246000fd5b6000600182016112bb576112bb61121e565b506001019056fea26469706673582212202d3d19f17a69732ea0e705cf7c031483921953c8c6203f2f107cb677e072934e64736f6c63430008110033",
    "linkReferences": {}
  },
  "methodIdentifiers": {
    "DECIMALS_PRESERVATION()": "c52a33b7",
    "allowance(address,address)": "dd62ed3e",
    "approve(address,uint256)": "095ea7b3",
    "balanceOf(address)": "70a08231",
    "claim()": "4e71d92d",
    "decimals()": "313ce567",
    "decreaseAllowance(address,uint256)": "a457c2d7",
    "displayReward(address)": "a38abb82",
    "displayStakeTime(address)": "e89768d3",
    "increaseAllowance(address,uint256)": "39509351",
    "name()": "06fdde03",
    "openShangai()": "877a10bb",
    "pushWeekReward(uint256)": "b3839936",
    "stake()": "3a4b66f1",
    "symbol()": "95d89b41",
    "totalSupply()": "18160ddd",
    "transfer(address,uint256)": "a9059cbb",
    "transferFrom(address,address,uint256)": "23b872dd",
    "unstake(uint256)": "2e17de78",
    "users(address)": "a87430ba",
    "weeklyAPR(uint256)": "9d9ed8c3"
  },
  "id": 0
}